:020000040800F2
:1000000000280020150E0008A50D0008AB0D000803
:10001000B10D0008B70D0008BD0D0008000000007C
:10002000000000000000000000000000C30D0008F8
:10003000CF0D000800000000DB0D0008E70D0008F0
:100040005D0E00085D0E00085D0E00085D0E0008E4
:100050005D0E00085D0E00085D0E00085D0E0008D4
:100060005D0E00085D0E00085D0E00085D0E0008C4
:100070005D0E00085D0E00085D0E00085D0E0008B4
:100080005D0E00085D0E00085D0E00085D0E0008A4
:100090005D0E00085D0E00085D0E00085D0E000894
:1000A0005D0E00085D0E00085D0E00085D0E000884
:1000B000F50D00085D0E0008000000005D0E000850
:1000C0005D0E000800000000000000005D0E00084A
:1000D000000000005D0E00085D0E0008000000003A
:1000E0005D0E00085D0E00085D0E000800000000B7
:1000F0000000000000000000000000000000000000
:0C01000000000000000000005FF808F1A3
:10010C0010B5054C237833B9044B13B10448AFF345
:10011C0000800123237010BD40000020000000006F
:10012C008424000808B5034B1BB103490348AFF303
:10013C00008008BD0000000044000020842400085A
:10014C0080B400AF064B1B68012B04D1044B00227A
:10015C001A60012300E000231846BD4680BC70479E
:10016C005C00002080B400AF064B1B68012B04D14F
:10017C00044B00221A60012300E000231846BD4600
:10018C0080BC70476000002080B400AF064B1B6839
:10019C00012B04D1044B00221A60012300E0002340
:1001AC001846BD4680BC70476400002080B400AF88
:1001BC00064B1B68012B04D1044B00221A6001234F
:1001CC0000E000231846BD4680BC70476C00002040
:1001DC0080B400AF064B1B68012B04D1044B0022EA
:1001EC001A60012300E000231846BD4680BC70470E
:1001FC007000002080B582B000AF00237B6034E13A
:10020C009E4A7B6852F823209D497B6841F8232045
:10021C009C4A7B6852F8232098497B6841F823203C
:10022C007B68002B52D14FF40051974801F0FCF839
:10023C0003461946934A7B6842F82310904A7B6820
:10024C0052F823208D497B6851F823309A423DD1D6
:10025C008A4A7B6852F823208A497B6851F82330FC
:10026C009A4233D1894A7B6852F8232085497B68AE
:10027C0051F823309A4214D0824A7B6852F82320DA
:10028C0082497B6841F823207E4A7B6852F82330F0
:10029C00002B1BD17E4B01221A607E4B64221A600C
:1002AC0014E0784A7B6852F82330002B0ED1794B3E
:1002BC001B68013B774A1360764B1B68002B05D1FA
:1002CC00754B01221A60734B64221A607B68012BF8
:1002DC0062D16A4A7B6852F8232069497B6841F8ED
:1002EC002320684A7B6852F8232064497B6841F8D4
:1002FC0023204FF48041644801F096F803461946D8
:10030C00604A7B6842F823105D4A7B6852F82320D0
:10031C005A497B6851F823309A423DD1574A7B6841
:10032C0052F8232057497B6851F823309A4233D135
:10033C00564A7B6852F8232052497B6851F8233087
:10034C009A4214D04F4A7B6852F823204F497B685D
:10035C0041F823204B4A7B6852F82330002B1BD1E9
:10036C004E4B01221A604B4B64221A6014E0454A32
:10037C007B6852F82330002B0ED1464B1B68013B97
:10038C00444A1360434B1B68002B05D1444B01229C
:10039C001A60404B64221A607B68022B62D1374A88
:1003AC007B6852F8232036497B6841F82320354A74
:1003BC007B6852F8232031497B6841F823204FF4A5
:1003CC000041314801F030F8034619462D4A7B684C
:1003DC0042F823102A4A7B6852F8232027497B686D
:1003EC0051F823309A423DD1244A7B6852F823209D
:1003FC0024497B6851F823309A4233D1234A7B68D5
:10040C0052F823201F497B6851F823309A4214D0AC
:10041C001C4A7B6852F823201C497B6841F8232036
:10042C00184A7B6852F82330002B1BD11D4B01223C
:10043C001A60184B64221A6014E0124A7B6852F856
:10044C002330002B0ED1134B1B68013B114A136058
:10045C00104B1B68002B05D1134B01221A600D4B5E
:10046C0064221A607B6801337B607B68022B7FF708
:10047C00C7AE00BF00BF0837BD4680BD0C000020D2
:10048C000000002018000020001001402400002073
:10049C005C0000203000002068000020600000207C
:1004AC006C000020640000207000002080B582B039
:1004BC0000AF786000220121BF4800F0CCFF002281
:1004CC000221BD4800F0C7FF00220421BA4800F009
:1004DC00C2FF00220821B84800F0BDFF0022102105
:1004EC00B54800F0B8FF00222021B34800F0B3FF5C
:1004FC0000224021B04800F0AEFF7B68002B23D1D6
:10050C0000220121AC4800F0A6FF00220221AA48DB
:10051C0000F0A1FF00220421A74800F09CFF00225C
:10052C000821A54800F097FF00221021A24800F0F6
:10053C0092FF00222021A04800F08DFF01224021D3
:10054C009D4800F088FF5FE17B68012B23D10122DD
:10055C000121994800F07FFF00220221964800F00B
:10056C007AFF00220421944800F075FF0122082133
:10057C00914800F070FF012210218F4800F06BFFB2
:10058C00012220218C4800F066FF012240218A487C
:10059C0000F061FF38E17B68022B23D1002201219E
:1005AC00854800F058FF00220221834800F053FFD9
:1005BC0001220421804800F04EFF002208217E48D1
:1005CC0000F049FF002210217B4800F044FF01227B
:1005DC002021794800F03FFF00224021764800F0AE
:1005EC003AFF11E17B68032B23D1002201217248D1
:1005FC0000F031FF002202216F4800F02CFF002296
:10060C0004216D4800F027FF002208216A4800F001
:10061C0022FF01221021684800F01DFF0122202139
:10062C00654800F018FF00224021634800F013FFDA
:10063C00EAE07B68042B23D1012201215E4800F003
:10064C000AFF002202215C4800F005FF0022042171
:10065C00594800F000FF01220821574800F0FBFE2A
:10066C0001221021544800F0F6FE002220215248AD
:10067C0000F0F1FE002240214F4800F0ECFEC3E0F8
:10068C007B68052B23D1002201214B4800F0E3FEAF
:10069C0001220221484800F0DEFE002204214648D7
:1006AC0000F0D9FE00220821434800F0D4FE0122BC
:1006BC001021414800F0CFFE002220213E4800F0DE
:1006CC00CAFE002240213C4800F0C5FE9CE07B683D
:1006DC00062B23D100220121374800F0BCFE012259
:1006EC000221354800F0B7FE00220421324800F008
:1006FC00B2FE00220821304800F0ADFE002210218D
:10070C002D4800F0A8FE002220212B4800F0A3FE6B
:10071C0000224021284800F09EFE75E07B68072BE4
:10072C0023D100220121244800F095FE0022022151
:10073C00214800F090FE002204211F4800F08BFE9F
:10074C00012208211C4800F086FE012210211A48C3
:10075C0000F081FE01222021174800F07CFE0122CE
:10076C004021154800F077FE4EE07B68082B25D120
:10077C0000220121104800F06EFE002202210E48DA
:10078C0000F069FE002204210B4800F064FE0022F8
:10079C000821094800F05FFE00221021064800F0F5
:1007AC005AFE00222021044800F055FE0022402170
:1007BC00014800F050FE27E0000C01407B68092B3B
:1007CC0022D100220121124800F045FE0022022114
:1007DC000F4800F040FE002204210D4800F03BFEC3
:1007EC00002208210A4800F036FE01221021084898
:1007FC0000F031FE00222021054800F02CFE0022E2
:10080C004021034800F027FE00BF0837BD4680BDDD
:10081C00000C014080B500AF954B1B68032B00F01A
:10082C00C680032B00F31A81012B02D0022B58D067
:10083C0014E1FFF785FC0346012B0AD18D4B0022F6
:10084C001A608C4B1B681846FFF730FE884B012250
:10085C001A60FFF787FC0346012B26D1FFF7A6FC95
:10086C000346012B0CD1834B1B680133814A136067
:10087C00804B1B681846FFF719FE7D4B02221A604D
:10088C007C4B1B68082B05DC7A4B1B680133794ABF
:10089C00136002E0774B00221A60764B1B681846F7
:1008AC00FFF704FE724B02221A60FFF76DFC034641
:1008BC00012B40F0D5806F4B1B68002B05DD6D4B79
:1008CC001B68013B6B4A136002E06A4B09221A60F9
:1008DC00684B1B681846FFF7E9FD654B03221A604D
:1008EC00BEE0FFF72DFC0346012B0AD1614B002221
:1008FC001A60604B1B681846FFF7D8FD5C4B012251
:10090C001A60FFF72FFC0346012B26D1FFF74EFC94
:10091C000346012B0CD1574B1B680133554A13600E
:10092C00544B1B681846FFF7C1FD514B02221A604D
:10093C00504B1B68082B05DC4E4B1B6801334D4A92
:10094C00136002E04B4B00221A604A4B1B6818469E
:10095C00FFF7ACFD464B02221A60FFF715FC03466D
:10096C00012B7FD1434B1B68002B05DD414B1B68D2
:10097C00013B404A136002E03E4B09221A603D4B9A
:10098C001B681846FFF792FDFFF722FC0346012B6C
:10099C0009D1384B1B68013B364A1360354B1B6839
:1009AC001846FFF783FD324B03221A605AE0FFF71B
:1009BC00C7FB0346012B0AD12E4B00221A602D4B8C
:1009CC001B681846FFF772FD294B01221A60FFF7CE
:1009DC00C9FB0346012B26D1FFF7E8FB0346012B8D
:1009EC000CD1244B1B680133224A1360214B1B682A
:1009FC001846FFF75BFD1E4B02221A601D4B1B684D
:100A0C00082B05DC1B4B1B6801331A4A136002E0F0
:100A1C00184B00221A60174B1B681846FFF746FD4F
:100A2C00134B02221A60FFF7AFFB0346012B1BD1BD
:100A3C00104B1B68002B05DD0E4B1B68013B0D4A50
:100A4C00136002E00B4B09221A600A4B1B68184614
:100A5C00FFF72CFD064B03221A6005E000BF04E0F3
:100A6C0000BF02E000BF00E000BF00BF80BD00BFC0
:100A7C00740000207800002080B500AF00F0EAF987
:100A8C0000F012F800F098F800F04AF8044801F071
:100A9C0033F9044B01221A60FFF7BCFEFCE700BFE0
:100AAC00840000207400002080B590B000AF07F1E6
:100ABC00180328220021184601F0D6FC3B1D002209
:100ACC001A605A609A60DA601A610223BB610123D2
:100ADC00BB621023FB6200237B6307F118031846EB
:100AEC0000F0D2FC0346002B01D000F0DFF80F23FE
:100AFC007B600023BB600023FB6000233B61002371
:100B0C007B613B1D0021184600F03EFF0346002B85
:100B1C0001D000F0CBF800BF4037BD4680BD0000CF
:100B2C0080B586B000AF07F1080300221A605A6046
:100B3C009A60DA603B4600221A605A601D4B4FF0F7
:100B4C0080421A601B4B41F63F725A60194B0022CF
:100B5C009A60184B0922DA60164B00221A61154B69
:100B6C0000229A61134801F077F80346002B01D05C
:100B7C0000F09CF84FF48053BB6007F10803194652
:100B8C000C4801F00DFA0346002B01D000F08EF852
:100B9C0000233B6000237B603B461946054801F06F
:100BAC00D5FB0346002B01D000F080F800BF1837AE
:100BBC00BD4680BD8400002080B588B000AF07F131
:100BCC00100300221A605A609A60DA602D4B9B6900
:100BDC002C4A43F0100393612A4B9B6903F01003DA
:100BEC00FB60FB68274B9B69264A43F00403936127
:100BFC00244B9B6903F00403BB60BB68214B9B69CE
:100C0C00204A43F0080393611E4B9B6903F00803D1
:100C1C007B607B68002220211B4800F01CFC00221A
:100C2C007F211A4800F017FC4FF460433B6100230E
:100C3C007B610123BB6107F110031946144800F0D6
:100C4C0079FA20233B6101237B610023BB610223E2
:100C5C00FB6107F1100319460B4800F06BFA7F2378
:100C6C003B6101237B610023BB610223FB6107F124
:100C7C0010031946054800F05DFA00BF2037BD4649
:100C8C0080BD00BF0010024000080140000C014074
:100C9C000010014080B582B000AF786000F00CF815
:100CAC00FFF7A8FA00BF0837BD4680BD80B400AF7F
:100CBC0072B600BFFEE7000080B400AF094B1B68A2
:100CCC00002B0BDD074B1B68013B064A1360054BE1
:100CDC001B68002B02DC044B01221A6000BFBD46CE
:100CEC0080BC70477C0000208000002080B485B060
:100CFC0000AF154B9B69144A43F001039361124BEF
:100D0C009B6903F00103BB60BB680F4BDB690E4AA8
:100D1C0043F08053D3610C4BDB6903F080537B6051
:100D2C007B680A4B5B68FB60FB6823F0E063FB604D
:100D3C00FB6843F08063FB60044AFB68536000BFB0
:100D4C001437BD4680BC70470010024000000140C3
:100D5C0080B584B000AF78607B681B68B3F1804FBE
:100D6C0013D10C4BDB690B4A43F00103D361094BE4
:100D7C00DB6903F00103FB60FB68002200211C20EF
:100D8C0000F0A1F91C2000F0BAF900BF1037BD46E5
:100D9C0080BD00BF0010024080B400AFFEE780B4FD
:100DAC0000AFFEE780B400AFFEE780B400AFFEE713
:100DBC0080B400AFFEE780B400AF00BFBD4680BC7E
:100DCC00704780B400AF00BFBD4680BC704780B494
:100DDC0000AF00BFBD4680BC704780B500AF00F0CF
:100DEC007FF800BF80BD000080B500AF024800F066
:100DFC00CFFF00BF80BD00BF8400002080B400AFD7
:100E0C0000BFBD4680BC70470C480D490D4A0023FD
:100E1C0002E0D458C4500433C4188C42F9D30A4AA3
:100E2C000A4C002301E013600432A242FBD3FFF70B
:100E3C00E5FF01F0F5FAFFF71FFE704700000020F8
:100E4C0040000020C424000840000020D0000020F6
:100E5C00FEE7000080B500AF084B1B68074A43F063
:100E6C0010031360032000F023F90F2000F008F8A2
:100E7C00FFF73CFF0023184680BD00BF0020024056
:100E8C0080B582B000AF7860124B1A68124B1B7899
:100E9C0019464FF47A73B3FBF1F3B2FBF3F3184634
:100EAC0000F03BF90346002B01D001230EE07B68D8
:100EBC000F2B0AD8002279684FF0FF3000F003F9AD
:100ECC00064A7B681360002300E0012318460837AC
:100EDC00BD4680BD340000203C00002038000020BE
:100EEC0080B400AF054B1B781A46054B1B681344A6
:100EFC00034A136000BFBD4680BC70473C00002015
:100F0C00CC00002080B400AF024B1B681846BD46D5
:100F1C0080BC7047CC00002080B485B000AF7860F6
:100F2C007B6803F00703FB600C4BDB68BB60BA68A3
:100F3C004FF6FF031340BB60FB681A02BB681343F8
:100F4C0043F0BF6343F40033BB60044ABB68D36017
:100F5C0000BF1437BD4680BC704700BF00ED00E0F9
:100F6C0080B400AF044BDB681B0A03F00703184680
:100F7C00BD4680BC704700BF00ED00E080B483B07C
:100F8C0000AF0346FB7197F90730002B0BDBFB79A5
:100F9C0003F01F02064997F907305B09012000FA9C
:100FAC0002F241F8232000BF0C37BD4680BC7047CD
:100FBC0000E100E080B483B000AF03463960FB7100
:100FCC0097F90730002B0ADB3B68DAB20C4997F92A
:100FDC0007301201D2B20B4483F800230AE03B68BD
:100FEC00DAB20849FB7903F00F03043B1201D2B2C9
:100FFC000B441A7600BF0C37BD4680BC704700BF4F
:10100C0000E100E000ED00E080B489B000AFF860D2
:10101C00B9607A60FB6803F00703FB61FB69C3F1FD
:10102C000703042B28BF0423BB61FB690433062B85
:10103C0002D9FB69033B00E000237B614FF0FF32D8
:10104C00BB6902FA03F3DA43BB681A407B699A4026
:10105C004FF0FF317B6901FA03F3D9437B680B40F6
:10106C00134318462437BD4680BC704780B582B008
:10107C0000AF78607B68013BB3F1807F01D3012323
:10108C000FE00A4A7B68013B53600F214FF0FF30A1
:10109C00FFF790FF054B00229A60044B07221A6061
:1010AC00002318460837BD4680BD00BF10E000E0A5
:1010BC0080B582B000AF78607868FFF72DFF00BF75
:1010CC000837BD4680BD80B586B000AF0346B96019
:1010DC007A60FB7300237B61FFF742FF78617A68CB
:1010EC00B9687869FFF790FF024697F90F301146FF
:1010FC001846FFF75FFF00BF1837BD4680BD80B5AF
:10110C0082B000AF0346FB7197F907301846FFF722
:10111C0035FF00BF0837BD4680BD80B582B000AF3B
:10112C0078607868FFF7A2FF034618460837BD467B
:10113C0080BD000080B48BB000AF786039600023B4
:10114C007B6200233B6248E101227B6A02FA03F3D3
:10115C00FB613B681B68FA691340BB61BA69FB69A8
:10116C009A4240F037813B685B68A34A93425ED059
:10117C00A14A934275D8A14A934258D09F4A9342B0
:10118C006FD89F4A934252D09D4A934269D89D4A48
:10119C0093424CD09B4A934263D89B4A934246D08D
:1011AC00994A93425DD8122B2AD8122B59D801A2F6
:1011BC0052F823F03B120008151200082712000801
:1011CC00691200086F1200086F1200086F120008F5
:1011DC006F1200086F1200086F1200086F120008DF
:1011EC006F1200086F1200086F1200086F120008CF
:1011FC006F1200086F1200081D120008311200084F
:10120C00824A934213D02CE03B68DB683B6229E0B6
:10121C003B68DB6804333B6224E03B68DB680833E3
:10122C003B621FE03B68DB680C333B621AE03B68B7
:10123C009B68002B02D104233B6213E03B689B6844
:10124C00012B05D108233B627B68FA691A6109E01E
:10125C0008233B627B68FA695A6103E000233B6216
:10126C0000E000BFBB69FF2B01D87B6801E07B6805
:10127C0004337B61BB69FF2B02D87B6A9B0002E0C5
:10128C007B6A083B9B003B617B691A680F213B69B9
:10129C0001FA03F3DB431A40396A3B6901FA03F3A1
:1012AC001A437B691A603B685B6803F08053002B20
:1012BC0000F09080564B9B69554A43F001039361B3
:1012CC00534B9B6903F00103BB60BB68514A7B6ABB
:1012DC009B08023352F82330FB607B6A03F0030354
:1012EC009B000F2202FA03F3DB43FA681340FB6006
:1012FC007B68494A93420DD07B68484A934207D099
:10130C007B68474A934201D1022304E0032302E0A5
:10131C00012300E000237A6A02F00302920093405A
:10132C00FA681343FB603B497B6A9B080233FA68FB
:10133C0041F823203B685B6803F48033002B06D014
:10134C00384B1A683749BB6913430B6006E0354BC1
:10135C001A68BB69DB43334913400B603B685B681D
:10136C0003F40033002B06D02E4B5A682D49BB6971
:10137C0013434B6006E02B4B5A68BB69DB4329498E
:10138C0013404B603B685B6803F48013002B06D062
:10139C00244B9A682349BB6913438B6006E0214BAD
:1013AC009A68BB69DB431F4913408B603B685B68E1
:1013BC0003F40013002B06D01A4BDA681949BB69E9
:1013CC001343CB6006E0174BDA68BB69DB43154966
:1013DC001340CB607B6A01337B623B681A687B6A83
:1013EC0022FA03F3002B7FF4AFAE00BF00BF2C3703
:1013FC00BD4680BC704700BF0000321000003110A9
:10140C00000022100000211000001210000011102A
:10141C00001002400000014000080140000C014097
:10142C00001001400004014080B485B000AF78602A
:10143C000B467B807B689A687B881340002B02D01C
:10144C000123FB7301E00023FB73FB7B184614376D
:10145C00BD4680BC704780B483B000AF78600B464B
:10146C007B8013467B707B78002B03D07A887B685B
:10147C001A6103E07B881A047B681A6100BF0C3781
:10148C00BD4680BC7047000080B586B000AF786068
:10149C007B68002B01D101236CE27B681B6803F095
:1014AC000103002B00F08780924B5B6803F00C0368
:1014BC00042B0CD08F4B5B6803F00C03082B12D160
:1014CC008C4B5B6803F48033B3F5803F0BD1894BB5
:1014DC001B6803F40033002B6CD07B685B68002B1B
:1014EC0068D1012346E27B685B68B3F5803F06D187
:1014FC00804B1B687F4A43F4803313602EE07B687B
:10150C005B68002B0CD17B4B1B687A4A23F480332D
:10151C001360784B1B68774A23F4802313601DE01B
:10152C007B685B68B3F5A02F0CD1724B1B68714ABA
:10153C0043F4802313606F4B1B686E4A43F4803373
:10154C0013600BE06B4B1B686A4A23F48033136007
:10155C00684B1B68674A23F4802313607B685B68C5
:10156C00002B13D0FFF7CEFC386108E0FFF7CAFC64
:10157C0002463B69D31A642B01D90323FAE15D4B74
:10158C001B6803F40033002BF0D014E0FFF7BAFC17
:10159C00386108E0FFF7B6FC02463B69D31A642BAE
:1015AC0001D90323E6E1534B1B6803F40033002BF2
:1015BC00F0D100E000BF7B681B6803F00203002B36
:1015CC0063D04C4B5B6803F00C03002B0BD0494BE6
:1015DC005B6803F00C03082B1CD1464B5B6803F4CF
:1015EC008033002B16D1434B1B6803F00203002BF6
:1015FC0005D07B681B69012B01D00123BAE13D4B5F
:10160C001B6823F0F8027B685B69DB0039491343E4
:10161C000B603AE07B681B69002B20D0364B012213
:10162C001A60FFF76FFC386108E0FFF76BFC0246AD
:10163C003B69D31A022B01D903239BE12D4B1B6869
:10164C0003F00203002BF0D02A4B1B6823F0F802A6
:10165C007B685B69DB00274913430B6015E0264B65
:10166C0000221A60FFF74EFC386108E0FFF74AFCD5
:10167C0002463B69D31A022B01D903237AE11D4B95
:10168C001B6803F00203002BF0D17B681B6803F08E
:10169C000803002B3AD07B689B69002B19D0174BA1
:1016AC0001221A60FFF72EFC386108E0FFF72AFCD4
:1016BC0002463B69D31A022B01D903235AE10D4B85
:1016CC005B6A03F00203002BF0D0012000F0A6FAB5
:1016DC001CE00A4B00221A60FFF714FC38610FE083
:1016EC00FFF710FC02463B69D31A022B08D90323DF
:1016FC0040E100BF00100240000042428004424220
:10170C009E4B5B6A03F00203002BE9D17B681B68DC
:10171C0003F00403002B00F0A6800023FB75974B0D
:10172C00DB6903F08053002B0DD1944BDB69934A9A
:10173C0043F08053D361914BDB6903F08053BB6062
:10174C00BB680123FB758E4B1B6803F48073002B65
:10175C0018D18B4B1B688A4A43F480731360FFF7D4
:10176C00D1FB386108E0FFF7CDFB02463B69D31A89
:10177C00642B01D90323FDE0814B1B6803F48073B8
:10178C00002BF0D07B68DB68012B06D17B4B1B6AEE
:10179C007A4A43F0010313622DE07B68DB68002B6F
:1017AC000CD1764B1B6A754A23F001031362734B01
:1017BC001B6A724A23F0040313621CE07B68DB682B
:1017CC00052B0CD16D4B1B6A6C4A43F0040313625E
:1017DC006A4B1B6A694A43F0010313620BE0674BC7
:1017EC001B6A664A23F001031362644B1B6A634A4B
:1017FC0023F0040313627B68DB68002B15D0FFF722
:10180C0081FB38610AE0FFF77DFB02463B69D31A86
:10181C0041F28832934201D90323ABE0574B1B6A48
:10182C0003F00203002BEED014E0FFF76BFB3861E2
:10183C000AE0FFF767FB02463B69D31A41F2883294
:10184C00934201D9032395E04C4B1B6A03F002032E
:10185C00002BEED1FB7D012B05D1484BDB69474AB0
:10186C0023F08053D3617B68DB69002B00F081800F
:10187C00424B5B6803F00C03082B61D07B68DB697F
:10188C00022B46D13F4B00221A60FFF73BFB38611D
:10189C0008E0FFF737FB02463B69D31A022B01D94C
:1018AC00032367E0354B1B6803F00073002BF0D16A
:1018BC007B681B6AB3F5803F08D1304B5B6823F41F
:1018CC0000327B689B682D4913434B602B4B5B6844
:1018DC0023F474127B68196A7B685B6A0B43274993
:1018EC0013434B60274B01221A60FFF70BFB386147
:1018FC0008E0FFF707FB02463B69D31A022B01D91C
:10190C00032337E01D4B1B6803F00073002BF0D052
:10191C002FE01C4B00221A60FFF7F4FA386108E044
:10192C00FFF7F0FA02463B69D31A022B01D90323C5
:10193C0020E0124B1B6803F00073002BF0D118E071
:10194C007B68DB69012B01D1012313E00B4B5B6836
:10195C00FB60FB6803F480327B681B6A9A4206D1F9
:10196C00FB6803F470127B685B6A9A4201D0012316
:10197C0000E0002318461837BD4680BD0010024019
:10198C00007000406000424280B584B000AF7860C7
:10199C0039607B68002B01D10123D0E06A4B1B68B6
:1019AC0003F007033A689A4210D9674B1B6823F07F
:1019BC00070265493B6813430B60634B1B6803F0DC
:1019CC0007033A689A4201D00123B8E07B681B6890
:1019DC0003F00203002B20D07B681B6803F0040388
:1019EC00002B05D0594B5B68584A43F4E0635360B5
:1019FC007B681B6803F00803002B05D0534B5B6816
:101A0C00524A43F460535360504B5B6823F0F0022E
:101A1C007B689B684D4913434B607B681B6803F0E4
:101A2C000103002B40D07B685B68012B07D1474B2F
:101A3C001B6803F40033002B15D101237FE07B6876
:101A4C005B68022B07D1414B1B6803F00073002B22
:101A5C0009D1012373E03D4B1B6803F00203002BFB
:101A6C0001D101236BE0394B5B6823F003027B68E7
:101A7C005B68364913434B60FFF744FAF8600AE0A1
:101A8C00FFF740FA0246FB68D31A41F288329342C0
:101A9C0001D9032353E02D4B5B6803F00C027B68E8
:101AAC005B689B009A42EBD1274B1B6803F0070342
:101ABC003A689A4210D2244B1B6823F00702224941
:101ACC003B6813430B60204B1B6803F007033A6819
:101ADC009A4201D0012332E07B681B6803F00403B7
:101AEC00002B08D0194B5B6823F4E0627B68DB6841
:101AFC00164913434B607B681B6803F00803002BEB
:101B0C0009D0124B5B6823F460527B681B69DB00C5
:101B1C000E4913434B6000F021F802460B4B5B68F7
:101B2C001B0903F00F030A49CB5C22FA03F3094AA1
:101B3C001360094B1B681846FFF7A2F900231846DF
:101B4C001037BD4680BD00BF00200240001002408F
:101B5C00AC240008340000203800002090B48AB077
:101B6C0000AF2A4B3C1D0FCB84E80F0040F2012341
:101B7C003B800023FB610023BB6100237B620023BD
:101B8C007B6100233B62224B5B68FB61FB6903F0CA
:101B9C000C03042B02D0082B03D02DE01D4B3B6211
:101BAC002DE0FB699B0C03F00F0307F12802134493
:101BBC0013F8243C7B61FB6903F48033002B13D0B6
:101BCC00134B5B685B0C03F0010307F12802134411
:101BDC0013F8283CBB617B690E4A02FB03F2BB691C
:101BEC00B2FBF3F37B6204E07B690B4A02FB03F369
:101BFC007B627B6A3B6202E0064B3B6200BF3B6A46
:101C0C0018462837BD4690BC704700BF9C2400087E
:101C1C000010024000127A0000093D0080B485B02B
:101C2C0000AF78600A4B1B680A4AA2FB03235B0ACD
:101C3C007A6802FB03F3FB6000BFFB685A1EFA6074
:101C4C00002BF9D100BF00BF1437BD4680BC7047D4
:101C5C0034000020D34D621080B582B000AF7860A4
:101C6C007B68002B01D1012341E07B6893F83D3068
:101C7C00DBB2002B06D17B68002283F83C2078680D
:101C8C00FFF766F87B68022283F83D207B681A68B0
:101C9C007B6804331946104600F06AFA7B6801220F
:101CAC0083F846207B68012283F83E207B68012262
:101CBC0083F83F207B68012283F840207B68012257
:101CCC0083F841207B68012283F842207B68012243
:101CDC0083F843207B68012283F844207B6801222F
:101CEC0083F845207B68012283F83D2000231846A9
:101CFC000837BD4680BD000080B485B000AF786069
:101D0C007B6893F83D30DBB2012B01D0012335E029
:101D1C007B68022283F83D207B681B68DA687B684D
:101D2C001B6842F00102DA607B681B68164A93421A
:101D3C0009D07B681B68B3F1804F04D07B681B68AB
:101D4C00124A934211D17B681B689B6803F007030E
:101D5C00FB60FB68062B10D07B681B681A687B68DD
:101D6C001B6842F001021A6007E07B681B681A6866
:101D7C007B681B6842F001021A6000231846143776
:101D8C00BD4680BC704700BF002C014000040040E1
:101D9C0080B582B000AF78607B681B681B6903F06C
:101DAC000203022B22D17B681B68DB6803F0020361
:101DBC00022B1BD17B681B686FF002021A617B68D7
:101DCC0001221A777B681B689B6903F00303002BC5
:101DDC0003D0786800F0B1F905E0786800F0A4F958
:101DEC00786800F0B3F97B6800221A777B681B686F
:101DFC001B6903F00403042B22D17B681B68DB688E
:101E0C0003F00403042B1BD17B681B686FF00402E6
:101E1C001A617B6802221A777B681B689B6903F442
:101E2C004073002B03D0786800F087F905E07868E0
:101E3C0000F07AF9786800F089F97B6800221A774B
:101E4C007B681B681B6903F00803082B22D17B6895
:101E5C001B68DB6803F00803082B1BD17B681B682D
:101E6C006FF008021A617B6804221A777B681B6882
:101E7C00DB6903F00303002B03D0786800F05DF9F5
:101E8C0005E0786800F050F9786800F05FF97B683D
:101E9C0000221A777B681B681B6903F01003102B58
:101EAC0022D17B681B68DB6803F01003102B1BD15D
:101EBC007B681B686FF010021A617B6808221A7726
:101ECC007B681B68DB6903F44073002B03D07868D4
:101EDC0000F033F905E0786800F026F9786800F036
:101EEC0035F97B6800221A777B681B681B6903F045
:101EFC000103012B0ED17B681B68DB6803F0010327
:101F0C00012B07D17B681B686FF001021A6178689E
:101F1C00FEF7C0FE7B681B681B6903F08003802BF7
:101F2C000ED17B681B68DB6803F08003802B07D124
:101F3C007B681B686FF080021A61786800F067FAA2
:101F4C007B681B681B6903F04003402B0ED17B6838
:101F5C001B68DB6803F04003402B07D17B681B68D0
:101F6C006FF040021A61786800F0F9F87B681B6822
:101F7C001B6903F02003202B0ED17B681B68DB68E8
:101F8C0003F02003202B07D17B681B686FF0200225
:101F9C001A61786800F032FA00BF0837BD4680BD80
:101FAC0080B584B000AF786039607B6893F83C30C2
:101FBC00012B01D10223B3E07B68012283F83C2082
:101FCC007B68022283F83D207B681B689B68FB6062
:101FDC00FB6823F07703FB60FB6823F47F43FB6013
:101FEC007B681B68FA689A603B681B68B3F5005FF6
:101FFC003ED0B3F5005F00F28780B3F5805F00F050
:10200C008580B3F5805F7FD8702B1AD0702B7BD86E
:10201C00602B50D0602B77D8502B3CD0502B73D8E2
:10202C00402B58D0402B6FD8302B64D0302B6BD832
:10203C00202B60D0202B67D8002B5CD0102B5AD0D3
:10204C0062E07B6818683B6899683B685A683B6833
:10205C00DB6800F05CF97B681B689B68FB60FB68C5
:10206C0043F07703FB607B681B68FA689A604EE06C
:10207C007B6818683B6899683B685A683B68DB6802
:10208C0000F045F97B681B689A687B681B6842F412
:10209C0080429A603BE07B6818683B6859683B68F3
:1020AC00DB681A4600F0BCF87B681B6850211846A8
:1020BC0000F013F92BE07B6818683B6859683B68A3
:1020CC00DB681A4600F0DAF87B681B68602118465A
:1020DC0000F003F91BE07B6818683B6859683B68A3
:1020EC00DB681A4600F09CF87B681B684021184698
:1020FC0000F0F3F80BE07B681A683B681B68194624
:10210C00104600F0EAF802E000BF00E000BF7B6878
:10211C00012283F83D207B68002283F83C200023B9
:10212C0018461037BD4680BD80B483B000AF7860D0
:10213C0000BF0C37BD4680BC704780B483B000AF85
:10214C00786000BF0C37BD4680BC704780B483B04C
:10215C0000AF786000BF0C37BD4680BC704780B4C0
:10216C0083B000AF786000BF0C37BD4680BC7047B1
:10217C0080B485B000AF786039607B681B68FB6009
:10218C007B68254A934207D07B68B3F1804F03D01C
:10219C007B68224A934208D1FB6823F07003FB60F2
:1021AC003B685B68FA681343FB607B681A4A93428E
:1021BC0007D07B68B3F1804F03D07B68174A9342FA
:1021CC0008D1FB6823F44073FB603B68DB68FA685A
:1021DC001343FB60FB6823F080023B685B6913438D
:1021EC00FB607B68FA681A603B689A687B68DA6205
:1021FC003B681A687B689A627B68074A934203D1F2
:10220C003B681A697B681A637B6801225A6100BFBC
:10221C001437BD4680BC7047002C014000040040C0
:10222C0080B487B000AFF860B9607A60FB681B6A55
:10223C007B61FB681B6A23F00102FB681A62FB6876
:10224C009B693B613B6923F0F0033B617B681B019D
:10225C003A6913433B617B6923F00A037B617A691A
:10226C00BB6813437B61FB683A699A61FB687A69C6
:10227C001A6200BF1C37BD4680BC704780B487B063
:10228C0000AFF860B9607A60FB681B6A23F010023B
:10229C00FB681A62FB689B697B61FB681B6A3B618C
:1022AC007B6923F470437B617B681B037A6913435E
:1022BC007B613B6923F0A0033B61BB681B013A695E
:1022CC0013433B61FB687A699A61FB683A691A624D
:1022DC0000BF1C37BD4680BC704780B485B000AFD2
:1022EC00786039607B689B68FB60FB6823F0700347
:1022FC00FB603A68FB68134343F00703FB607B68A1
:10230C00FA689A6000BF1437BD4680BC704780B431
:10231C0087B000AFF860B9607A603B60FB689B687F
:10232C007B617B6923F47F437B613B681A027B688A
:10233C001A43BB6813437A6913437B61FB687A6960
:10234C009A6000BF1C37BD4680BC704780B485B016
:10235C0000AF786039607B6893F83C30012B01D179
:10236C00022341E07B68012283F83C207B68022237
:10237C0083F83D207B681B685B68FB607B681B688F
:10238C009B68BB60FB6823F07003FB603B681B68B9
:10239C00FA681343FB607B681B68FA685A607B68B9
:1023AC001B68144A934209D07B681B68B3F1804FB9
:1023BC0004D07B681B68104A93420CD1BB6823F095
:1023CC008003BB603B685B68BA681343BB607B6887
:1023DC001B68BA689A607B68012283F83D207B6891
:1023EC00002283F83C20002318461437BD4680BCDD
:1023FC00704700BF002C01400004004080B483B043
:10240C0000AF786000BF0C37BD4680BC704780B40D
:10241C0083B000AF786000BF0C37BD4680BC7047FE
:10242C0070B500260C4D0D4C641BA410A64209D1AE
:10243C0000F022F800260A4D0A4C641BA410A64298
:10244C0005D170BD55F8043B98470136EEE755F8B9
:10245C00043B98470136F2E7BC240008BC24000872
:10246C00BC240008C024000803460244934200D157
:10247C00704703F8011BF9E7F8B500BFF8BC08BCBE
:10248C009E467047F8B500BFF8BC08BC9E46704726
:10249C0002030405060708090A0B0C0D0E0F101099
:1024AC0000000000000000000102030406070809F8
:0424BC0031010008E2
:0424C0000D01000802
:1024C4000100000001000000010000000100000004
:1024D40001000000010000000100000001000000F4
:1024E40001000000010000000100000001000000E4
:1024F400640000000024F40010000000010000004B
:0400000508000E15CC
:00000001FF
